:0400000044EF3FF09A
:107E8800000191EF3FF00B0E026E260E016E5E0EA2
:107E9800E82EFED7012EFCD7022EFAD71200040EC8
:107EA800026E0C0E016E340EE82EFED7012EFCD7A2
:107EB800022EFAD7120001500210D8A466EF3FF044
:107EC80068EF3FF079EF3FF083A46DEF3FF06FEF7D
:107ED8003FF090EF3FF080A074EF3FF076EF3FF077
:107EE80090EF3FF0838890EF3FF083A07EEF3FF064
:107EF80080EF3FF090EF3FF083A885EF3FF087EFEA
:107F08003FF090EF3FF0839880A08DEF3FF08FEF28
:107F18003FF090EF3FF083861200720ED36E0F0E83
:107F2800C16E000E956E92808080839883969390A0
:107F38009392939E000E0B6E000E0A6E030E096E4E
:107F4800080E086E770EE82EFED7082EFCD7092EED
:107F5800FAD700F080A0B3EF3FF0B5EF3FF0BAEFEB
:107F68003FF08A8E8A808A92BBEF3FF08A9E0A5041
:107F78000B10D8B4C2EF3FF0C4EF3FF0CAEF3FF0A8
:107F8800839083828394839653EC3FF0839083920B
:107F980083840A500B10D8A4D4EF3FF0D6EF3FF0FB
:107FA800DEEF3FF0B60E086ED00EE82EFED7082E94
:107FB800FCD700D0000E026E000E016E5FEC3FF0A1
:107FC80047EC3FF047EC3FF083908382839453EC77
:107FD8003FF0838083928394000E026E010E016E3F
:107FE8005FEC3FF047EC3FF047EC3FF00A4A0B2AC2
:087FF800A2EF3FF000EF00F0E2
:020000040020DA
:08000000FFFFFFFFFFFFFFFF00
:020000040030CA
:0E000000000A1F1EFF8385FF0FC00FE00F4098
:00000001FF
